:020000020000FC
:020000001DC021
:1000100001C140E440937C0047E840937A0047ECFC
:1000200040937A0050917A0054FFFCCF17ED109363
:100030007A002091780030917900089500E007B9A6
:100040000EE008B9219A229A239A0EE000936C00E0
:1000500002E000936800789471E074B97CEF7AB99B
:10006000A0E0B0E0C7EED3E0E0E0F0E091E080E0B7
:1000700055275130C1F0523029F15330A1F1DD2420
:10008000EE24FF2400271127222729982A982B984D
:10009000A90FB81F0B2F1A2F6DD0662788D0AC1769
:1000A000BD0738F3E8F6DD24EE24FF24552795E05C
:1000B000A90FB81FAC17BD07E0F60B2F1A2F5AD0A7
:1000C00076D0F1CFDD24EE24FF245527E2E0FF2790
:1000D00092E0A91BB80BAE17BF0710F20B2F1A2F17
:1000E00049D065D0EFCF29982A982B9A92DFE22F3A
:1000F000F32FF795E7958894F795E7958894F7950A
:10010000E7958894F795E7958894F795E79588940F
:10011000F795E79588940F2F1E2F2CD048D0329B4F
:1001200001D0E1CF29982A9A2B9873DFC22FD32FC1
:10013000F795E7958894F795E7958894F795E7956F
:100140008894F795E7958894F795E7958894F795BF
:10015000E79588940D2F1C2F0DD029D0329B01D00C
:10016000E1CF299A2A982B9854DF307F932F02D021
:100170001ED01895B03031F002531243D3940030A2
:1001800009F0F8CF143628F01456D3941436D4F767
:1001900000F01A3028F01A50E3941A30D4F700F027
:1001A000103021F01150F3941130D4F708951D2D23
:1001B00014D0289A5B985A9826D01E2D0ED02898D5
:1001C0005B9A5A9820D01F2D08D028985B985A9A8D
:1001D0001AD06395623351F3EACF129588278BB911
:1001E00017FD5C9A16FD5D9A15FD5E9A14FD5F9AE7
:1001F0000895AA24BB24CC24AA94F1F7BA94E1F779
:10020000CA94D1F70895AA24BB24AA94F1F7BA940A
:10021000E1F708955527319B51E0329B53E0339B22
:0402200052E01895FB
:00000001FF
