:020000020000FC
:020000001DC021
:10001000C4C040E440937C0047E840937A0047EC3A
:1000200040937A0050917A0054FFFCCF17ED109363
:100030007A002091780030917900089500E007B9A6
:100040000EE008B90AE000936C0002E0009368003B
:10005000789471E074B97CEF7AB9A0E0B0E0C7EEB3
:10006000D3E0E0E0F0E091E080E016B112FF18D0BC
:1000700010E0D82EE82EF82EA90FB81F28D044D0B3
:10008000AC17BD0790F348F7A90FB81FAC17BD0711
:10009000D8F30895A91BB80BAE17BF07D8F708957A
:1000A000B8DFE22FF32F6FD016B112FF01D0F8CFD7
:1000B000B0DFC22FD32F67D016B112FF01D0F8CF17
:1000C000A8DF922F60D016B112FFCFCFF9CF0B2F40
:1000D0001A2FB03019F002531243D394143628F07B
:1000E0001456D39414369CF700F01A3028F01A50A6
:1000F000E3941A30D4F700F0103029F01150F39443
:100100001130D4F7089508951D2D14D0D12E70E02C
:10011000D70EDBB8289A1E2D0DD078E0E12EE70E21
:10012000EBB828981F2D06D074E0F12EF70EFBB81F
:10013000289808951295103091F0103191F01032F6
:1001400091F0103391F0103491F0103591F0103699
:1001500091F0103791F0103891F0103991F010E0D3
:10016000089510E8089510E4089510EC089510E241
:10017000089510EA089510E6089510EE089510E12C
:10018000089510E9089520E030E040E02A95F1F765
:100190003A95E1F74A95D1F7089516B111FF74DF4A
:0601A00013FF78DF189543
:00000001FF
