:020000020000FC
:020000001DC021
:10001000DAC040E440937C0047E840937A0047EC24
:1000200040937A0050917A0054FFFCCF17ED109363
:100030007A002091780030917900089500E007B9A6
:100040000EE008B90AE000936C0002E0009368003B
:10005000789471E074B97CEF7AB9A0E0B0E0C7EEB3
:10006000D3E0E0E0F0E091E080E016B112FD1FD0B7
:1000700010E0D82EE82EF82EA90FB81F32D04ED09F
:1000800091D0AC17BD0788F340F7A90FB81FAC1784
:10009000BD0727D043D086D0C0F30895A91BB80B65
:1000A000AE17BF071ED03AD07DD0C0F70895B1DF9C
:1000B000E22FF32F33D076D016B112FD01D0F7CF57
:1000C000A8DFC22FD32F2AD06DD016B112FD01D0D8
:1000D000F7CF9FDF922F22D065D016B112FDC5CF8A
:1000E000F8CF0B2F1A2FB03019F002531243D394CC
:1000F000143628F01456D39414369CF700F01A30B6
:1001000028F01A50E3941A30D4F700F0103029F098
:100110001150F3941130D4F7089508951D2D19D07E
:10012000D12E70E0D70EDBB8289A46D01E2D11D004
:1001300078E0E12EE70EEBB828983ED01F2D09D0CD
:1001400074E0F12EF70EFBB828989395923330F3B4
:1001500008951295103091F0103191F0103291F015
:10016000103391F0103491F0103591F0103691F079
:10017000103791F0103891F0103991F010E0089597
:1001800010E8089510E4089510EC089510E2089521
:1001900010EA089510E6089510EE089510E108950C
:1001A00010E9089520E030E040E02A95F1F73A9513
:1001B000E1F74A95D1F7089520E030E02A95F1F76C
:1001C0003A95E1F70895EEDF16B111FD5EDF13FDFC
:0401D00065DF18953A
:00000001FF
