:020000020000FC
:020000001DC021
:10001000BCC040E440937C0047E840937A0047EC42
:1000200040937A0050917A0054FFFCCF17ED109363
:100030007A002091780030917900089500E007B9A6
:100040000EE008B9A0E0B0E0C7EED3E0E0E0F0E0F9
:1000500091E080E00AE000936C0002E00093680009
:10006000789471E074B97CEF7AB916B112FF28D098
:10007000A90FB81FAC17BD073AD01D2D53D0D12EF4
:1000800071E0D70EDBB8289A1E2D4CD078E0E12E17
:10009000E70EEBB828981F2D45D074E0F12EF70E2F
:1000A000FBB8289810F370F6A90FB81FAC17BD075E
:1000B000D8F30895A91BB80BAE17BF07D8F708955A
:1000C000A8DFE22FF32F57D016B112FF01D0F8CFDF
:1000D000A0DFC22FD32F4FD016B112FF01D0F8CF1F
:1000E00098DF922F48D016B112FFBFCFF9CFB030B2
:1000F00019F0D297D297D394A43628F0A456D3946B
:10010000A436ACF700F0AA3028F0AA50E394AA3045
:10011000D4F700F0A03029F0A150F394A130D4F727
:10012000089508951295103091F0113091F0123029
:1001300091F0133091F0143091F0153091F01630A9
:1001400091F0173091F0183091F0193091F010E0E3
:10015000089510E8089510E4089510EC089510E251
:10016000089510EA089510E6089510EE089510E13C
:10017000089510E9089520E030E040E02A95F1F775
:100180003A95E1F74A95D1F7089516B111FF8CDF42
:0601900013FF90DF18953B
:00000001FF
