:020000020000FC
:10000000AD01FF0304052407540971E074B97CEFC6
:100010007AB9E0E0F0E0A59106D022D043D09395E4
:100020009A3099F3F8CF0B2F1A2FB03019F00253F2
:100030001243D394143628F01456D39414369CF7F4
:1000400000F01A3028F01A50E3941A30D4F700F078
:10005000103029F01150F3941130D4F70895089519
:100060001D2D14D0289A5B985A9826D01E2D0ED09C
:1000700028985B9A5A9820D01F2D08D028985B9812
:100080005A9A1AD02395223358F30895129530E0E6
:100090003BB917FD5C9A16FD5A9A15FD5E9A14FD40
:1000A0005F9A089520E030E040E02A95F1F73A9514
:1000B000E1F74A95D1F7089520E030E02A95F1F76D
:0600C0003A95E1F70895F6
:00000001FF
