:020000020000FC
:1000000071E074B97CEF7AB9E4E1F0E0A59107D032
:1000100023D0FCCFAD01FF030405240754090B2FA7
:100020001A2FB03019F002531243D394143628F02B
:100030001456D39414369CF700F01A3028F01A5056
:10004000E3941A30D4F700F0103029F01150F394F3
:100050001130D4F7089508951D2D11D0289A5B987A
:100060005A981E2D0CD028985B9A5A981F2D07D0AD
:1000700028985B985A9A2395223370F30895129525
:1000800030E03BB917FD5C9A16FD5D9A15FD5E9A4E
:1000900014FD5F9A089520E030E040E02A95F1F7E2
:1000A0003A95E1F74A95D1F7089520E030E02A9596
:0800B000F1F73A95E1F708951C
:00000001FF
