:020000020000FC
:020000001FC01F
:1000100092C000E007B90EE008B902E000936C005E
:1000200002E000936800789471E074B97CEF7AB9CB
:10003000A0E0B0E0FDCF75D006B102FF01C0FBCF5C
:1000400007D06FD006B103FF01C0FACF01D0FECFB9
:1000500022BD11BD00BDFA9AF99AF999F9CF089518
:10006000F999FECF22BD11BDF89A00B50895B030C0
:1000700019F002531243D394143628F01456D39433
:100080001436ACF700F01A3028F01A50E3941A3006
:10009000D4F700F0103029F01150F3941130D4F758
:1000A000089508951D2D14D0D12E70E0D70EDBB821
:1000B000289A1E2D0DD078E0E12EE70EEBB8289897
:1000C0001F2D06D074E0F12EF70EFBB82898089586
:1000D0001295103091F0103191F0103291F01033F0
:1000E00091F0103491F0103591F0103691F01037F6
:1000F00091F0103891F0103991F010E0089510E867
:10010000089510E4089510EC089510E2089510EA9F
:10011000089510E6089510EE089510E1089510E98D
:10012000089520E030E040E02A95F1F73A95E1F7B4
:0E0130004A95D1F7089516B111FF7DDF18959D
:00000001FF
