:100000000C9435000C945D000C945D000C945D0024
:100010000C945D000C945D000C945D000C945D00EC
:100020000C945D000C945D000C945D000C945D00DC
:100030000C945D000C945D000C945D000C945D00CC
:100040000C945D000C945D000C9419020C94F30167
:100050000C945D000C945D000C945D000C945D00AC
:100060000C945D000C945D004B0211241FBECFEF79
:10007000D8E0DEBFCDBF11E0A0E0B1E0E6EBF9E0F3
:1000800002C005900D92A632B107D9F721E0A6E291
:10009000B1E001C01D92A53FB207E1F710E0C5E352
:1000A000D0E004C02197FE010E94C404C433D107EC
:1000B000C9F70E9478020C94D9040C940000AF9206
:1000C000BF92CF92DF92EF92FF920F931F93CF9345
:1000D000DF936C017B018B01040F151FEB015E01A7
:1000E000AE18BF08C017D10759F06991D601ED913C
:1000F000FC910190F081E02DC6010995892B79F7DB
:10010000C501DF91CF911F910F91FF90EF90DF908C
:10011000CF90BF90AF900895FC01538D448D252F53
:1001200030E0842F90E0821B930B541710F0CF9691
:10013000089501970895FC01918D828D981761F0C3
:10014000A28DAE0FBF2FB11D5D968C91928D9F5FDA
:100150009F73928F90E008958FEF9FEF0895FC01B9
:10016000918D828D981731F0828DE80FF11D858D6C
:1001700090E008958FEF9FEF0895FC01918D228DFF
:10018000892F90E0805C9F4F821B91098F73992784
:100190000895FC01A48DA80FB92FB11DA35ABF4F1C
:1001A0002C91848D90E001968F739927848FA68976
:1001B000B7892C93A089B1898C91837080648C93CA
:1001C000938D848D981306C00288F389E02D808179
:1001D0008F7D80830895EF92FF920F931F93CF93AB
:1001E000DF93EC0181E0888F9B8D8C8D98131AC072
:1001F000E889F989808185FF15C09FB7F894EE8959
:10020000FF896083E889F9898081837080648083B5
:100210009FBF81E090E0DF91CF911F910F91FF9000
:10022000EF900895F62E0B8D10E00F5F1F4F0F73A8
:100230001127E02E8C8D8E110CC00FB607FCFACF63
:10024000E889F989808185FFF5CFCE010E94C90038
:10025000F1CFEB8DEC0FFD2FF11DE35AFF4FF08234
:100260009FB7F8940B8FEA89FB8980818062CFCF9A
:10027000CF93DF93EC01888D8823B9F0AA89BB89DD
:10028000E889F9898C9185FD03C0808186FD0DC0C8
:100290000FB607FCF7CF8C9185FFF2CF808185FFE9
:1002A000EDCFCE010E94C900E9CFDF91CF91089533
:1002B000AF92BF92CF92DF92EF92FF920F931F9374
:1002C000CF93DF9300D000D01F92CDB7DEB79B0154
:1002D000FE01319610E07F015AE0C52ED12CB60107
:1002E0000E946804805D8193CB011F5F009711F02D
:1002F0001530A9F750E0E42FF0E0BF01615071091B
:100300006B01C11AD1085F0182E0A81AB10840E36D
:10031000852F90E0861797079CF48901080F191F15
:100320008C159D0524F4D8014C935F5FF1CFD50166
:10033000A81BB90BAE0DBF1D8C91D8018C93F5CFC6
:10034000E20FF31F319710820F900F900F900F90D4
:100350000F90DF91CF911F910F91FF90EF90DF9061
:10036000CF90BF90AF90089580FF17C05C9A81FF37
:1003700016C05D9A82FF15C05E9A83FF14C05F9A13
:100380005B9A85E08A95F1F700005B988FE891E031
:100390000197F1F700C0000008955C98E8CF5D98E0
:1003A000E9CF5E98EACF5F98EBCFCF93C82F662353
:1003B00059F05A9A8C2F82958F700E94B4018C2F1D
:1003C0008F70CF910C94B4015A98F4CFCF93DF93F0
:1003D000EC018991882321F061E00E94D501F9CFD9
:1003E000DF91CF9108951F920F920FB60F921124B3
:1003F0002F933F934F935F936F937F938F939F932D
:10040000AF93BF93EF93FF9388E591E00E94C900FB
:10041000FF91EF91BF91AF919F918F917F916F91DC
:100420005F914F913F912F910F900FBE0F901F90B2
:1004300018951F920F920FB60F9211242F938F933E
:100440009F93EF93FF93E0916801F09169018081A0
:10045000E0916E01F0916F0182FD1BC0908180914F
:1004600071018F5F8F7320917201821741F0E091CB
:100470007101F0E0E85AFE4F958F80937101FF9172
:10048000EF919F918F912F910F900FBE0F901F9022
:1004900018958081F4CFE8E5F1E01382128288EEAE
:1004A00093E0A0E0B0E084839583A683B78384E0E3
:1004B00091E09183808385EC90E09587848784EC3C
:1004C00090E09787868780EC90E0918B808B81EC21
:1004D00090E0938B828B82EC90E0958B848B86EC02
:1004E00090E0978B868B118E128E138E148E08954A
:1004F000CF93DF93CDB7DEB7A5970FB6F894DEBFE5
:100500000FBECDBFE8E4F1E090E080E0F999FECFC6
:1005100092BD81BDF89A20B5219301968031910555
:10052000A9F78AB18C6F8AB92FEF80E792E021504A
:1005300080409040E1F700C0000083E00E94B401D9
:10054000EFE1FEE43197F1F700C0000083E00E9484
:10055000B4018FE891E00197F1F700C0000083E05B
:100560000E94B40182E00E94B40160E088E20E942F
:10057000D50160E08CE00E94D50160E086E00E9439
:10058000D50160E081E00E94D501EFE3FFE1319702
:10059000F1F700C0000082E191E00E94E60187B11E
:1005A000817F87B988B18E6088B980917C00806432
:1005B00080937C0080917A00876880937A0084B170
:1005C0008F6384B987B1806387B9E0916801F09146
:1005D000690182E08083E0916401F09165011082FD
:1005E000E0916601F09167018FEC808310927001B9
:1005F000E0916C01F0916D0186E08083E0916A01E9
:10060000F0916B01808180618083E0916A01F091BB
:100610006B01808188608083E0916A01F0916B01B9
:10062000808180688083E0916A01F0916B01808114
:100630008F7D808334E6832E912CA12CB12C4AE04F
:10064000C42ED12CE12CF12C80917C00807F8093F2
:100650007C0080917A00806480937A0080917A0097
:1006600086FDFCCF8091780090917900E091470160
:10067000F0E0EE0FFF1FE95DFE4F9183808376B0BF
:1006800006B1047016B1187060E080EC0E94D501CC
:100690008091260143E0BE016E5D7F4F90E00E9495
:1006A00058018EE191E00E94E601CE0182960E94FF
:1006B000E60180E291E00E94E601E0912601F0E08F
:1006C000E85BFE4F808144E0BE016F5F7F4F90E0AA
:1006D0000E945801CE0101960E94E60171FC22C0E1
:1006E000809126018F5F80932601803190F0E8E4AD
:1006F000F1E090E080E02191F999FECF92BD81BDBB
:1007000020BDFA9AF99A019680319105A1F71092CD
:100710002601FFEF25EA8EE0F15020408040E1F70E
:1007200000C00000011111C0E0912601F0E0E85B7B
:10073000FE4F80818F5F80839FEFE5EAFEE091505E
:10074000E040F040E1F700C00000111111C0E0915D
:100750002601F0E0E85BFE4F8081815080832FEF1F
:1007600085EA9EE0215080409040E1F700C0000003
:100770000091470110E0A801405F5F4FE8E4F1E01D
:10078000412C512C32012191DA01AF70BB27AA0F05
:10079000BB1FA95DBE4F0D90BC91A02D30E00E9403
:1007A000BD04460E571E681E791E4150510904179C
:1007B000150749F7C301B201A50194010E949E04E7
:1007C00029013A0182E075946794579447948A9579
:1007D000D1F747FE57C02D9A46FE56C02C9A45FECB
:1007E00055C02B9A44FE54C02A9A43FE53C0299AFE
:1007F00042FE52C0289A41FE51C0459A40FE50C068
:10080000449A77FE4FC06DE288E591E00E94EB00CC
:1008100022273327A901241935094609570919A2A6
:100820008E010F5D1F4FCA01B901A70196010E94F9
:100830007C04605DF80162938F012115310541054B
:10084000510589F70115110561F001900020E9F7C4
:100850003197AF01401B510BB80188E591E00E9430
:100860005F0042E050E062E271E088E591E00E94C2
:100870005F008091470190E001968F7099278093E7
:100880004701E2CE2D98A8CF2C98A9CF2B98AACFBC
:100890002A98ABCF2998ACCF2898ADCF4598AECF4A
:1008A0004498AFCFA301920119A28E010F5D1F4F93
:1008B000CA01B901A70196010E947C04605DF8019C
:1008C00062938F01211531054105510589F7BACF92
:1008D000AA1BBB1B51E107C0AA1FBB1FA617B70766
:1008E00010F0A61BB70B881F991F5A95A9F7809582
:1008F0009095BC01CD010895A1E21A2EAA1BBB1B45
:10090000FD010DC0AA1FBB1FEE1FFF1FA217B307DB
:10091000E407F50720F0A21BB30BE40BF50B661FF1
:10092000771F881F991F1A9469F7609570958095B5
:1009300090959B01AC01BD01CF010895052E97FB59
:100940001EF400940E94B50457FD07D00E947C0459
:1009500007FC03D04EF40C94B504509540953095A7
:1009600021953F4F4F4F5F4F08959095809570951B
:1009700061957F4F8F4F9F4F08950E94CA04B7FF24
:100980000895821B930B0895EE0FFF1F0590F491BD
:10099000E02D0994A29FB001B39FC001A39F700DE9
:1009A000811D1124911DB29F700D811D1124911D77
:0609B0000895F894FFCF4A
:1009B60000000000EB005F008C003801BD009B00CA
:1009C600AF00436F6566696369656E7465004300D1
:0609D6003A000D0A0000CA
:00000001FF
