:100000000C9434000C9451000C9451000C94510049
:100010000C9436010C9451000C9451000C94510036
:100020000C9451000C9451000C9451000C9451000C
:100030000C9451000C9451000C9451000C945100FC
:100040000C9451000C9451000C9451000C945100EC
:100050000C9451000C9451000C9451000C945100DC
:100060000C9451000C94510011241FBECFEFD8E026
:10007000DEBFCDBF11E0A0E0B1E0E0EAF6E002C0F3
:1000800005900D92A439B107D9F721E0A4E9B1E0B8
:1000900001C01D92A33AB207E1F70E947B010C94C4
:1000A0004E030C940000CF92DF92EF92FF920F93D9
:1000B0001F93CF93DF9300D000D01F92CDB7DEB750
:1000C0008B01FE0131967F0120E03AE0C32ED12C56
:1000D000B6010E943A03805DD7018D937D01CB016B
:1000E0002F5F009711F0253099F7D80190E080E05C
:1000F00043E050E0BA01621B71099B0140E38217A3
:100100009307C4F44C93019611963197833091056F
:10011000B1F7D80113961C920F900F900F900F908B
:100120000F90DF91CF911F910F91FF90EF90DF9093
:10013000CF90089552815C93E6CF80FF17C05C9A00
:1001400081FF16C05D9A82FF15C05E9A83FF14C0BE
:100150005F9A5B9A85E08A95F1F700005B988FE8DB
:1001600091E00197F1F700C0000008955C98E8CF96
:100170005D98E9CF5E98EACF5F98EBCFCF93C82F19
:10018000662359F05A9A8C2F82958F700E949D0099
:100190008C2F8F70CF910C949D005A98F4CFCF93F1
:1001A000DF93EC018991882321F061E00E94BE0079
:1001B000F9CFDF91CF9108951F93CF93DF9300D0B4
:1001C00000D01F92CDB7DEB7182F60E08CEC0E94F4
:1001D000BE00BE016F5F7F4F812F90E00E945300F1
:1001E000CE0101960E94CF000F900F900F900F90BC
:1001F0000F90DF91CF911F9108951F93CF93DF93BD
:10020000CDB7DEB728970FB6F894DEBF0FBECDBFCF
:10021000182F60E087EC0E94BE00CE01019628E016
:10022000FC0111922A95E9F7FC0127E030E0412F0B
:1002300050E0BA01022E02C0759567950A94E2F764
:1002400060FD12C060E361932150310990F7198677
:100250000E94CF0028960FB6F894DEBF0FBECDBF28
:10026000DF91CF911F91089561E3EDCF1F920F921F
:100270000FB60F9211242F933F934F938F939F9319
:10028000EF93FF9386B18E7090910501981739F125
:100290009827E7ECF0E03197F1F700C0000086B155
:1002A000382F3E7091FF07C081FB222720F941E0E3
:1002B00024272093A20192FF07C082FB222720F966
:1002C00041E024272093A10193FF07C083FB8827E7
:1002D00080F991E089278093A00130930501FF9177
:1002E000EF919F918F914F913F912F910F900FBE62
:1002F0000F901F901895CF93DF9300D000D01F92DE
:10030000CDB7DEB78AB18C6F8AB92FEF30E782E0C4
:10031000215030408040E1F700C0000083E00E949F
:100320009D008FE19EE40197F1F700C0000083E09B
:100330000E949D008FE891E00197F1F700C0000056
:1003400083E00E949D0082E00E949D0060E088E2C0
:100350000E94BE0060E08CE00E94BE0060E086E08B
:100360000E94BE0060E081E00E94BE008FE39FE13A
:100370000197F1F700C0000087B1817F87B988B18C
:100380008E6088B980916800826080936800809157
:100390006C008E6080936C00789480917C00806407
:1003A00080937C0080917A00876880937A0084B182
:1003B0008F6384B987B1806387B9FAE0BF2EAA241E
:1003C000A39416E40DE4A0E2FA2EB6E09B2E8FE48F
:1003D000882E91E4E92E23E5D22E3BE4C32E8091B2
:1003E0007C00807F80937C0080917A008064809381
:1003F0007A0080917A0086FDFCCF80917800909100
:100400007900969587959695879590939F0180930F
:100410009E0160E080E80E94BE0086E891E00E94B4
:10042000CF0060E084E80E94BE0080E091E00E947E
:10043000CF0060E088E80E94BE008BE891E00E9457
:10044000CF0080910401BE016F5F7F4F90E00E945A
:100450005300CE0101960E94CF0060E080EC0E9424
:10046000BE008EE891E00E94CF008091A201882317
:1004700049F080919D018F5F853080F580939D01CB
:100480001092A2018091A101882339F0809104018A
:100490008F5F809304011092A1018091A0018823B5
:1004A00039F0809104018150809304011092A001E1
:1004B000809104018B30A8F0A092040180919D01ED
:1004C000823009F473C090F48130D9F18092000138
:1004D000109301011093020180E893C010929D01D6
:1004E000CFCF8111EBCFB0920401E8CF833009F474
:1004F0008BC0843059F710930001D0920101C09253
:10050000020180919E010E94FD0080919B0181115A
:1005100007C080919E0180939A0188E080939B019F
:1005200080919A019CE080FF94E080919901E82FEE
:10053000F0E0EA5FFE4F2081890F8F778093990169
:1005400096C0E092000100930101F09202018091B7
:100550009E010E94DC0080919401E82FF0E0EA5FA8
:10056000FE4F20812058330B90919E01929FA00155
:10057000939F500D11249FE7950F20910401820F46
:100580008F778093940190939C0180919C0190E0DF
:100590009C0144E0220F331F4A95E1F7207328B9EC
:1005A000959587959595879585B919CF10930001F5
:1005B00000930101F092020180919E010E94DC00F3
:1005C00020919501E22FF0E0EA5FFE4F8081805894
:1005D000990B880F991F80383FEF930714F480E838
:1005E0009FEF40919E01499DA00111242C5F250F92
:1005F0002F77209395018038910514F08FE790E0D4
:10060000805880939C01C1CFE0920001D0920101FB
:10061000C092020180919E010E94FD009091040110
:1006200080919801811107C080919E01809397016C
:1006300088E080939801809197013091960120E89D
:1006400080FF05C0E32FF0E0EA5FFE4F2081930FAB
:100650009F779093960191110AC090E095958795A8
:100660008093970180919801815080939801209305
:100670009C018BCFAA1BBB1B51E107C0AA1FBB1F4C
:10068000A617B70710F0A61BB70B881F991F5A951E
:10069000A9F780959095BC01CD010895F894FFCFFE
:1006A0004F46460001FFFFFEFEFDFCFAF8F6F3F0B0
:1006B000EDE9E5E1DCD7D2CDC7C1BBB5AFA8A29BC0
:1006C000948D867F78716A635C554E47413A342E2B
:1006D00028231E1914100C09060301000000000154
:1006E0000306090C1014191E23282E343A41474ED4
:1006F000555C636A71787F868D949BA2A8AFB5BB69
:10070000C1C7CDD2D7DCE1E5E9EDF0F3F6F8FAFCAC
:10071000FDFEFEFF000000000000000000000000E1
:100720000000000000004D6F643A00462A004D733F
:04073000673A000024
:00000001FF
